:100000000C9434000C9451000C9451000C94510049
:100010000C9451000C9451000C9451000C9451001C
:100020000C9451000C9451000C9451000C9451000C
:100030000C9451000C9437010C9451000C94510015
:100040000C9451000C9451000C94C6010C94F401D2
:100050000C9451000C944C010C9451000C945100E0
:100060000C9451000C94510011241FBECFEFD8E026
:10007000DEBFCDBF11E0A0E0B1E0E4E2F5E002C0F8
:1000800005900D92A831B107D9F721E0A8E1B1E0C0
:1000900001C01D92AD35B207E1F70E94F6000C9445
:1000A00090020C940000299A85E08A95F1F70000EF
:1000B00029980895CF93C82F662311F0289A01C07C
:1000C0002898549A559A569A579A5F985E985D98D0
:1000D0005C98CC230CF45F9AC6FD5E9AC5FD5D9AD0
:1000E000C4FD5C9A0E9453005F985E985D985C988E
:1000F000C3FD5F9AC2FD5E9AC1FD5D9AC0FD5C9A28
:100100000E9453005C9A5D9A5E9A5F9A87EB9BE02F
:100110000197F1F700C00000CF91089560E00E94C0
:100120005A000895611104C080580E948E000895FD
:1001300080540E948E00089581E00E948E000895F0
:1001400061E00E945A000895CF93DF93EC0121965D
:10015000FC018081882329F00E94A00089918111EF
:10016000FBCFDF91CF910895CF93C82F209A559A56
:10017000219A549A559A569A579A8FEF99EF019768
:10018000F1F700C000005D9A5C9A0E9453008FE175
:100190009EE40197F1F700C000000E9453008FEF2A
:1001A00090E00197F1F700C000000E9453008FEF2C
:1001B00090E00197F1F700C000005C980E945300A6
:1001C0008FEF90E00197F1F700C0000088E20E94F5
:1001D0008E0088E00E948E000E949C0086E00E94B3
:1001E0008E008C2F0E948E00CF9108958CE00E948B
:1001F000B40060E081E00E94920080E091E00E9403
:10020000A40061E083E00E94920087E091E00E94F8
:10021000A40061E088E00E9492008CE091E00E94DE
:10022000A400ECE7F0E080818064808380818F60AF
:100230008083EAE7F0E08081806880838081886045
:100240008083808187608083EFE6F0E08081816039
:100250008083E1E8F0E080818C7F8083808184600E
:10026000808387E690E00E941E027894FFCF1F9261
:100270000F920FB60F9211248F93EF93FF93EAE73B
:10028000F0E0808180648083FF91EF918F910F90E7
:100290000FBE0F901F9018951F920F920FB60F92DE
:1002A00011240F931F932F933F934F935F936F935B
:1002B0007F938F939F93AF93BF93EF93FF93CF93CE
:1002C000DF9300D000D0CDB7DEB780E390E39A8310
:1002D00089839C838B8300917800109179004AE098
:1002E000BE016F5F7F4FC8010E945B0260E088E043
:1002F0000E9492008EE091E00E94A40060E088E0FD
:100300000E949200CE0101960E94A4000D3F83E05E
:10031000180720F483E191E00E944C02CE0101967F
:100320000E944C0281E191E00E944C0240E1BE013A
:100330006F5F7F4FC8010E945B0260E08DE00E940A
:1003400092008EE091E00E94A40060E08DE00E94A7
:100350009200CE0101960E94A4000F900F900F9082
:100360000F90DF91CF91FF91EF91BF91AF919F914E
:100370008F917F916F915F914F913F912F911F913D
:100380000F910F900FBE0F901F9018951F920F9214
:100390000FB60F9211242F938F939F93EF93FF9398
:1003A0008091C0002091C6008C71E0911A01EF5F2E
:1003B000EF7190911901E91739F0E0931A01F0E01B
:1003C000E35EFE4F208301C082E090911801892BEB
:1003D00080931801FF91EF919F918F912F910F9032
:1003E0000FBE0F901F9018951F920F920FB60F928D
:1003F00011248F939F93EF93FF9390911C01809111
:100400001B01981769F0E0911B01EF5FEF71E0931A
:100410001B01F0E0E35CFE4F80818093C60005C0C5
:10042000E1ECF0E080818F7D8083FF91EF919F91DF
:100430008F910F900FBE0F901F90189510921C0176
:1004400010921B0110921A011092190199231CF4A9
:1004500022E02093C00090789093C5008093C40060
:1004600088E98093C10086E08093C20008952091BE
:100470001C012F5F2F7190911B012917E1F3E22FCF
:10048000F0E0E35CFE4F808320931C01E1ECF0E0A0
:100490008081806280830895CF93DF93EC0188810F
:1004A000882331F021960E94370289918111FBCF78
:1004B000DF91CF910895BB274A3031F4992322F47C
:1004C000BDE2909581959F4F0C946702BB27FB017D
:1004D0005527AA27880F991FAA1FA41710F0A41B3D
:1004E00083955051B9F7A05DAA3308F0A95DA19397
:1004F000009779F7B111B1931192CB010C9480025E
:10050000DC01FC01672F71917723E1F7329704C07A
:100510007C916D9370836291AE17BF07C8F3089505
:04052000F894FFCF7D
:1005240076616C75653A006B65793A00630020204A
:080534002020001B5B306D006C
:00000001FF
