:100000000C9434000C9451000C9451000C94510049
:100010000C9451000C9451000C9451000C9451001C
:100020000C9451000C9451000C9451000C9451000C
:100030000C9451000C9498000C9451000C945100B5
:100040000C94CB000C9451000C9451000C94510072
:100050000C9451000C9451000C9451000C945100DC
:100060000C9451000C94510011241FBECFEFD8E026
:10007000DEBFCDBF11E0A0E0B1E0E6E0F3E002C0FA
:1000800005900D92A431B107D9F721E0A4E1B1E0C8
:1000900001C01D92A631B207E1F70E9478000C94CE
:1000A00081010C940000FC01408121E030E002C09D
:1000B000220F331F6A95E2F7242B20830895FC0159
:1000C000908121E030E002C0220F331F6A95E2F7F1
:1000D0002095292320830895FC01408121E030E010
:1000E00002C0220F331F6A95E2F7242B2083089564
:1000F0000E94FE0062E085E00E940E01E1E8F0E06F
:1001000080818B7F8083808183608083EFE6F0E055
:1001100080818160808385B58C7F85BD85B5846055
:1001200085BDEEE6F0E08081816080837894FFCF2A
:100130001F920F920FB60F9211242F933F934F935C
:100140005F936F937F938F939F93AF93BF93EF933F
:10015000FF93809115018F5F8093150180911501A8
:10016000803110F0109215016091140180911501F9
:100170000E940E01FF91EF91BF91AF919F918F91DE
:100180007F916F915F914F913F912F910F900FBE93
:100190000F901F9018951F920F920FB60F92112477
:1001A0002F933F934F935F936F937F938F939F937F
:1001B000AF93BF93EF93FF93809114018F5F809370
:1001C000140180911401843010F010921401609198
:1001D0001401809115010E940E01FF91EF91BF91D2
:1001E000AF919F918F917F916F915F914F913F91CF
:1001F0002F910F900FBE0F901F90189564E08AE228
:1002000090E00E94530067E08AE290E00E94530071
:1002100060E084E290E00E94530008951F93CF9322
:10022000DF93E82FF0E0EC5FFE4F1081E62FF0E067
:10023000E050FF4FD08164E08BE290E00E945F00CD
:1002400067E08BE290E00E945F0060E085E290E072
:100250000E945F0085E08A95F1F70000C8E010FD7C
:1002600006C060E085E290E00E945F0005C060E0AB
:1002700085E290E00E946C0085E08A95F1F700002D
:1002800067E08BE290E00E946C0085E08A95F1F7D0
:10029000000067E08BE290E00E945F001695C1507D
:1002A000F1F6C8E0D0FD06C060E085E290E00E9473
:1002B0005F0005C060E085E290E00E946C0085E090
:1002C0008A95F1F7000067E08BE290E00E946C00F5
:1002D00085E08A95F1F7000067E08BE290E00E94EC
:1002E0005F00D695C150F1F664E08BE290E00E9489
:1002F0006C0085E08A95F1F70000DF91CF911F91A6
:060300000895F894FFCF00
:1003060010204080039F250D9949411F010911C105
:040316006385617129
:00000001FF
