S00C00006C6162382E73726563B1
S11300000C9434000C9451000C9451000C94510045
S11300100C9451000C9451000C9451000C94510018
S11300200C9451000C9451000C9451000C94510008
S11300300C9451000C946C000C9451000C945100DD
S11300400C9451000C9451000C9429010C94570108
S11300500C9451000C9451000C9451000C945100D8
S11300600C9451000C94510011241FBECFEFD8E022
S1130070DEBFCDBF11E0A0E0B1E0EAEEF3E002C0E4
S113008005900D92A434B107D9F721E0A4E4B1E0BE
S113009001C01D92AA38B207E1F70E9453000C94E4
S11300A0F3010C9400000E94F80087E690E00E949F
S11300B08101E1E8F0E080818A7F80838081826031
S11300C08083EFE6F0E0808181608083789482E031
S11300D091E00E94AF01FFCF1F920F920FB60F92D3
S11300E011241F932F933F934F935F936F937F93A9
S11300F08F939F93AF93BF93EF93FF93CF93DF932C
S113010000D0CDB7DEB780E390E39A8389838091F2
S11301100101823041F1833009F440C0813009F09B
S11301204EC0809100018F5F80930001883720F4D6
S113013082E08093010146C087E08093000180E261
S113014091E00E94AF01809144014AE0BE016F5FDB
S11301507F4F90E00E94BE01CE0101960E94AF0144
S1130160109244012FC080910001880F0E94070162
S1130170182F0E942501111109C0809144018F5F3D
S11301808093440183E0809301011CC08EE391E0DD
S11301900E94AF0181E08093010114C080910001AD
S11301A040E1BE016F5F7F4F90E00E94BE01CE012F
S11301B001960E94AF0181E08093010103C081E0B8
S11301C0809301010F900F90DF91CF91FF91EF91F8
S11301D0BF91AF919F918F917F916F915F914F915B
S11301E03F912F911F910F900FBE0F901F90189564
S11301F087B18F7C87B988B1806388B9E9EBF0E077
S113020080818C7F808388E98093B800089594EA84
S11302109093BC00ECEBF0E090819923ECF7809391
S1130220BB0084E88093BC00ECEBF0E08081882381
S1130230ECF79091B900987F983129F081E09034DF
S113024019F480E0089580E0089584E98093BC0067
S113025008951F920F920FB60F9211242F938F932C
S11302609F93EF93FF938091C0002091C6008C71FF
S1130270E0914701EF5FEF7190914601E91739F082
S1130280E0934701F0E0E65BFE4F208301C082E08B
S113029090914501892B80934501FF91EF919F91A6
S11302A08F912F910F900FBE0F901F9018951F9252
S11302B00F920FB60F9211248F939F93EF93FF9396
S11302C09091490180914801981769F0E0914801A3
S11302D0EF5FEF71E0934801F0E0E659FE4F808153
S11302E08093C60005C0E1ECF0E080818F7D8083BF
S11302F0FF91EF919F918F910F900FBE0F901F90E0
S113030018951092490110924801109247011092D9
S1130310460199231CF422E02093C0009078909326
S1130320C5008093C40088E98093C10086E080936F
S1130330C2000895209149012F5F2F7190914801C7
S11303402917E1F3E22FF0E0E659FE4F8083209372
S11303504901E1ECF0E08081806280830895CF93CD
S1130360DF93EC018881882331F021960E949A0161
S113037089918111FBCFDF91CF910895BB274A303A
S113038031F4992322F4BDE2909581959F4F0C940A
S1130390CA01BB27FB015527AA27880F991FAA1F4B
S11303A0A41710F0A41B83955051B9F7A05DAA338C
S11303B008F0A95DA193009779F7B111B193119257
S11303C0CB010C94E301DC01FC01672F71917723CD
S11303D0E1F7329704C07C916D9370836291AE17FC
S10D03E0BF07C8F30895F894FFCF97
S11303EA07010D0A5363616E204932432D62757306
S11303FA20666F7220646576696365733A0D0A0034
S113040A0D0A4E756D626572206F6620666F756E91
S113041A6420646576696365733A0D0A2000202DA9
S107042A2D2000007D
S9030000FC
